:0300000002096C86
:0C096C00787FE4F6D8FD75811B0209B30A
:1009F800454E5445522050415353574F524400439B
:100A08004F52524543542050415353574F5244007C
:100A1800444F4F52204F50454E4544002057524FA7
:100A28004E472050415353574F52440020444F4F94
:0F0A380052205354494C4C20434C4F53454400DB
:0C0B28000213000006083132333435009F
:100A4700E4F515F516120B127F80120B357BFF7A32
:100A57000979F8120A89120AEE7FC0120B35740859
:100A67002516F8E66017120800740E2516F8A60773
:100A7700120AEE0516E51670E5051580E11208D590
:020A870080C627
:100B12007F647E00120AF27F38120B357F0E120BB1
:060B2200357F01020B35D6
:0A0B35008F90C2B5120AEAC2B7227F
:060A89008B178A18891981
:100A8F00E4F51AF51BAB17AA18A919851B82851A4D
:100A9F0083120ABDFF6010120B3F74012519F5195F
:0E0AAF00E43518F51880DE7F107E27020AF26B
:0A0B3F008F90D2B5120AEAC2B72265
:080AEA00C2B6D2B77FE87E031B
:100AF200E4FDFCC3ED9FEC9E5015E4FBFA0BBB003A
:0F0B0200010AEB640A4A70F50DBD00010C80E496
:010B110022C1
:10080000E4FFFEEF4E60030208D4C2A0D2A1D2A240
:10081000D2A320B00B7F2A120B3F120AEE7F3122A7
:1008200020B10B7F2A120B3F120AEE7F322220B238
:100830000B7F2A120B3F120AEE7F3322D2A0C2A1F5
:10084000D2A2D2A320B00B7F2A120B3F120AEE7F56
:10085000342220B10B7F2A120B3F120AEE7F352281
:1008600020B20B7F2A120B3F120AEE7F3622D2A053
:10087000D2A1C2A2D2A320B00B7F2A120B3F120A30
:10088000EE7F372220B10B7F2A120B3F120AEE7F38
:10089000382220B20B7F2A120B3F120AEE7F392238
:1008A000D2A0D2A1D2A2C2A320B00B7F2A120B3FAA
:1008B000120AEE7F2A2220B10B7F2A120B3F120A66
:1008C000EE7F302230B2030208037F2A120B3F1260
:0408D0000AEE7F238A
:0108D4002201
:1008D500E508650E7055E509650F704FE50A651069
:1008E5007049E50B65117043E50C6512703D120A00
:1008F500EE7F01120B357F80120B357BFF7A0A796B
:1009050007120A89120AEED2B3C2B47F01120B355F
:100915007F80120B357BFF7A0A7918120A897F10BE
:100925007E27120AF2D2B3C2B480307F01120B3592
:100935007F18120B357BFF7A0A7924120A89120A6D
:10094500EE7F01120B357F18120B357BFF7A0A7982
:1009550034120A897F107E27120AF27F01120B35A5
:070965007513007514012257
:10097800020A47E493A3F8E493A34003F68001F244
:1009880008DFF48029E493A3F85407240CC8C33380
:10099800C4540F4420C8834004F456800146F6DF4F
:1009A800E4800B0102040810204080900B28E47EAC
:1009B800019360BCA3FF543F30E509541FFEE49344
:1009C800A360010ECF54C025E060A840B8E493A30B
:1009D800FAE493A3F8E493A3C8C582C8CAC583CA36
:1009E800F0A3C8C582C8CAC583CADFE9DEE780BEEE
:010B340000C0
:100ABD00BB010CE58229F582E5833AF583E02250EE
:100ACD0006E92582F8E622BBFE06E92582F8E22238
:0D0ADD00E58229F582E5833AF583E4932252
:00000001FF
